{
  "_format": "hh-sol-artifact-1",
  "contractName": "TestContract",
  "sourceName": "contracts/TestContract.sol",
  "abi": [
    {
      "inputs": [],
      "stateMutability": "nonpayable",
      "type": "constructor"
    },
    {
      "inputs": [],
      "name": "getTotalWaves",
      "outputs": [
        {
          "internalType": "uint256",
          "name": "",
          "type": "uint256"
        }
      ],
      "stateMutability": "view",
      "type": "function"
    },
    {
      "inputs": [],
      "name": "post",
      "outputs": [],
      "stateMutability": "nonpayable",
      "type": "function"
    },
    {
      "inputs": [],
      "name": "wave",
      "outputs": [],
      "stateMutability": "nonpayable",
      "type": "function"
    }
  ],
  "bytecode": "0x608060405234801561001057600080fd5b5061003c6040518060600160405280602481526020016107376024913961004160201b61011f1760201c565b6101c4565b6100dd816040516024016100559190610142565b6040516020818303038152906040527f41304fac000000000000000000000000000000000000000000000000000000007bffffffffffffffffffffffffffffffffffffffffffffffffffffffff19166020820180517bffffffffffffffffffffffffffffffffffffffffffffffffffffffff83818316178352505050506100e060201b60201c565b50565b60008151905060006a636f6e736f6c652e6c6f679050602083016000808483855afa5050505050565b600061011482610164565b61011e818561016f565b935061012e818560208601610180565b610137816101b3565b840191505092915050565b6000602082019050818103600083015261015c8184610109565b905092915050565b600081519050919050565b600082825260208201905092915050565b60005b8381101561019e578082015181840152602081019050610183565b838111156101ad576000848401525b50505050565b6000601f19601f8301169050919050565b610564806101d36000396000f3fe608060405234801561001057600080fd5b50600436106100415760003560e01c806305c1f502146100465780636fe15b44146100505780639a2cdc081461005a575b600080fd5b61004e610078565b005b61005861007a565b005b6100626100d4565b60405161006f91906103f2565b60405180910390f35b565b600160008082825461008c9190610429565b925050819055506100d26040518060400160405280600d81526020017f2573206861732077617665642100000000000000000000000000000000000000815250336101b8565b565b60006101176040518060400160405280601781526020017f5765206861766520256420746f74616c20776176657321000000000000000000815250600054610254565b600054905090565b6101b5816040516024016101339190610370565b6040516020818303038152906040527f41304fac000000000000000000000000000000000000000000000000000000007bffffffffffffffffffffffffffffffffffffffffffffffffffffffff19166020820180517bffffffffffffffffffffffffffffffffffffffffffffffffffffffff83818316178352505050506102f0565b50565b61025082826040516024016101ce929190610392565b6040516020818303038152906040527f319af333000000000000000000000000000000000000000000000000000000007bffffffffffffffffffffffffffffffffffffffffffffffffffffffff19166020820180517bffffffffffffffffffffffffffffffffffffffffffffffffffffffff83818316178352505050506102f0565b5050565b6102ec828260405160240161026a9291906103c2565b6040516020818303038152906040527f9710a9d0000000000000000000000000000000000000000000000000000000007bffffffffffffffffffffffffffffffffffffffffffffffffffffffff19166020820180517bffffffffffffffffffffffffffffffffffffffffffffffffffffffff83818316178352505050506102f0565b5050565b60008151905060006a636f6e736f6c652e6c6f679050602083016000808483855afa5050505050565b6103228161047f565b82525050565b60006103338261040d565b61033d8185610418565b935061034d8185602086016104bb565b6103568161051d565b840191505092915050565b61036a816104b1565b82525050565b6000602082019050818103600083015261038a8184610328565b905092915050565b600060408201905081810360008301526103ac8185610328565b90506103bb6020830184610319565b9392505050565b600060408201905081810360008301526103dc8185610328565b90506103eb6020830184610361565b9392505050565b60006020820190506104076000830184610361565b92915050565b600081519050919050565b600082825260208201905092915050565b6000610434826104b1565b915061043f836104b1565b9250827fffffffffffffffffffffffffffffffffffffffffffffffffffffffffffffffff03821115610474576104736104ee565b5b828201905092915050565b600061048a82610491565b9050919050565b600073ffffffffffffffffffffffffffffffffffffffff82169050919050565b6000819050919050565b60005b838110156104d95780820151818401526020810190506104be565b838111156104e8576000848401525b50505050565b7f4e487b7100000000000000000000000000000000000000000000000000000000600052601160045260246000fd5b6000601f19601f830116905091905056fea264697066735822122088fbefa72c49eac55a6f1f4bbc67af2f98a95fdb639addefeddce6beeff97f4f64736f6c63430008040033596f20796f2c204920616d206120636f6e747261637420616d204920616d20736d617274",
  "linkReferences": {},
  "deployedLinkReferences": {}
}