{
  "_format": "hh-sol-artifact-1",
  "contractName": "TestContract",
  "sourceName": "contracts/TestContract.sol",
  "abi": [
    {
      "inputs": [],
      "stateMutability": "payable",
      "type": "constructor"
    },
    {
      "anonymous": false,
      "inputs": [
        {
          "indexed": true,
          "internalType": "address",
          "name": "from",
          "type": "address"
        },
        {
          "indexed": false,
          "internalType": "uint256",
          "name": "timestamp",
          "type": "uint256"
        },
        {
          "indexed": false,
          "internalType": "string",
          "name": "comment",
          "type": "string"
        }
      ],
      "name": "NewComment",
      "type": "event"
    },
    {
      "inputs": [
        {
          "internalType": "string",
          "name": "_comment",
          "type": "string"
        }
      ],
      "name": "comment",
      "outputs": [],
      "stateMutability": "nonpayable",
      "type": "function"
    },
    {
      "inputs": [],
      "name": "getAllComments",
      "outputs": [
        {
          "components": [
            {
              "internalType": "address",
              "name": "sender",
              "type": "address"
            },
            {
              "internalType": "string",
              "name": "message",
              "type": "string"
            },
            {
              "internalType": "uint256",
              "name": "timestmap",
              "type": "uint256"
            }
          ],
          "internalType": "struct TestContract.Comment[]",
          "name": "",
          "type": "tuple[]"
        }
      ],
      "stateMutability": "view",
      "type": "function"
    },
    {
      "inputs": [],
      "name": "getTotalComments",
      "outputs": [
        {
          "internalType": "uint256",
          "name": "",
          "type": "uint256"
        }
      ],
      "stateMutability": "view",
      "type": "function"
    },
    {
      "inputs": [
        {
          "internalType": "address",
          "name": "",
          "type": "address"
        }
      ],
      "name": "lastCommentedAt",
      "outputs": [
        {
          "internalType": "uint256",
          "name": "",
          "type": "uint256"
        }
      ],
      "stateMutability": "view",
      "type": "function"
    }
  ],
  "bytecode": "0x6080604052610eaa806100136000396000f3fe608060405234801561001057600080fd5b506004361061004c5760003560e01c806310440904146100515780632c994afa1461006f5780638d3a622d1461008d578063b6b090d8146100a9575b600080fd5b6100596100d9565b60405161006691906109fa565b60405180910390f35b61007761022a565b6040516100849190610aac565b60405180910390f35b6100a760048036038101906100a291906107a0565b610275565b005b6100c360048036038101906100be9190610777565b61057a565b6040516100d09190610aac565b60405180910390f35b60606002805480602002602001604051908101604052809291908181526020016000905b8282101561022157838290600052602060002090600302016040518060600160405290816000820160009054906101000a900473ffffffffffffffffffffffffffffffffffffffff1673ffffffffffffffffffffffffffffffffffffffff1673ffffffffffffffffffffffffffffffffffffffff16815260200160018201805461018690610c92565b80601f01602080910402602001604051908101604052809291908181526020018280546101b290610c92565b80156101ff5780601f106101d4576101008083540402835291602001916101ff565b820191906000526020600020905b8154815290600101906020018083116101e257829003601f168201915b50505050508152602001600282015481525050815260200190600101906100fd565b50505050905090565b600061026d6040518060400160405280601a81526020017f5765206861766520256420746f74616c20636f6d6d656e747321000000000000815250600054610592565b600054905090565b42601e600360003373ffffffffffffffffffffffffffffffffffffffff1673ffffffffffffffffffffffffffffffffffffffff168152602001908152602001600020546102c29190610bbe565b10610302576040517f08c379a00000000000000000000000000000000000000000000000000000000081526004016102f990610a6c565b60405180910390fd5b42600360003373ffffffffffffffffffffffffffffffffffffffff1673ffffffffffffffffffffffffffffffffffffffff1681526020019081526020016000208190555060016000808282546103589190610bbe565b92505081905550600260405180606001604052803373ffffffffffffffffffffffffffffffffffffffff16815260200183815260200142815250908060018154018082558091505060019003906000526020600020906003020160009091909190915060008201518160000160006101000a81548173ffffffffffffffffffffffffffffffffffffffff021916908373ffffffffffffffffffffffffffffffffffffffff160217905550602082015181600101908051906020019061041e929190610657565b506040820151816002015550503373ffffffffffffffffffffffffffffffffffffffff167f79c996438e63fb299e1de20a8641457dfa876b1f9fee1330c25fe9885f1c4fed4283604051610473929190610ac7565b60405180910390a26000655af3107a40009050478111156104c9576040517f08c379a00000000000000000000000000000000000000000000000000000000081526004016104c090610a4c565b60405180910390fd5b60003373ffffffffffffffffffffffffffffffffffffffff16826040516104ef906109e5565b60006040518083038185875af1925050503d806000811461052c576040519150601f19603f3d011682016040523d82523d6000602084013e610531565b606091505b5050905080610575576040517f08c379a000000000000000000000000000000000000000000000000000000000815260040161056c90610a8c565b60405180910390fd5b505050565b60036020528060005260406000206000915090505481565b61062a82826040516024016105a8929190610a1c565b6040516020818303038152906040527f9710a9d0000000000000000000000000000000000000000000000000000000007bffffffffffffffffffffffffffffffffffffffffffffffffffffffff19166020820180517bffffffffffffffffffffffffffffffffffffffffffffffffffffffff838183161783525050505061062e565b5050565b60008151905060006a636f6e736f6c652e6c6f679050602083016000808483855afa5050505050565b82805461066390610c92565b90600052602060002090601f01602090048101928261068557600085556106cc565b82601f1061069e57805160ff19168380011785556106cc565b828001600101855582156106cc579182015b828111156106cb5782518255916020019190600101906106b0565b5b5090506106d991906106dd565b5090565b5b808211156106f65760008160009055506001016106de565b5090565b600061070d61070884610b1c565b610af7565b90508281526020810184848401111561072557600080fd5b610730848285610c50565b509392505050565b60008135905061074781610e5d565b92915050565b600082601f83011261075e57600080fd5b813561076e8482602086016106fa565b91505092915050565b60006020828403121561078957600080fd5b600061079784828501610738565b91505092915050565b6000602082840312156107b257600080fd5b600082013567ffffffffffffffff8111156107cc57600080fd5b6107d88482850161074d565b91505092915050565b60006107ed8383610977565b905092915050565b6107fe81610c14565b82525050565b600061080f82610b5d565b6108198185610b80565b93508360208202850161082b85610b4d565b8060005b85811015610867578484038952815161084885826107e1565b945061085383610b73565b925060208a0199505060018101905061082f565b50829750879550505050505092915050565b600061088482610b68565b61088e8185610b9c565b935061089e818560208601610c5f565b6108a781610d82565b840191505092915050565b60006108bd82610b68565b6108c78185610bad565b93506108d7818560208601610c5f565b6108e081610d82565b840191505092915050565b60006108f8603483610bad565b915061090382610d93565b604082019050919050565b600061091b600f83610bad565b915061092682610de2565b602082019050919050565b600061093e602783610bad565b915061094982610e0b565b604082019050919050565b6000610961600083610b91565b915061096c82610e5a565b600082019050919050565b600060608301600083015161098f60008601826107f5565b50602083015184820360208601526109a78282610879565b91505060408301516109bc60408601826109c7565b508091505092915050565b6109d081610c46565b82525050565b6109df81610c46565b82525050565b60006109f082610954565b9150819050919050565b60006020820190508181036000830152610a148184610804565b905092915050565b60006040820190508181036000830152610a3681856108b2565b9050610a4560208301846109d6565b9392505050565b60006020820190508181036000830152610a65816108eb565b9050919050565b60006020820190508181036000830152610a858161090e565b9050919050565b60006020820190508181036000830152610aa581610931565b9050919050565b6000602082019050610ac160008301846109d6565b92915050565b6000604082019050610adc60008301856109d6565b8181036020830152610aee81846108b2565b90509392505050565b6000610b01610b12565b9050610b0d8282610cc4565b919050565b6000604051905090565b600067ffffffffffffffff821115610b3757610b36610d53565b5b610b4082610d82565b9050602081019050919050565b6000819050602082019050919050565b600081519050919050565b600081519050919050565b6000602082019050919050565b600082825260208201905092915050565b600081905092915050565b600082825260208201905092915050565b600082825260208201905092915050565b6000610bc982610c46565b9150610bd483610c46565b9250827fffffffffffffffffffffffffffffffffffffffffffffffffffffffffffffffff03821115610c0957610c08610cf5565b5b828201905092915050565b6000610c1f82610c26565b9050919050565b600073ffffffffffffffffffffffffffffffffffffffff82169050919050565b6000819050919050565b82818337600083830152505050565b60005b83811015610c7d578082015181840152602081019050610c62565b83811115610c8c576000848401525b50505050565b60006002820490506001821680610caa57607f821691505b60208210811415610cbe57610cbd610d24565b5b50919050565b610ccd82610d82565b810181811067ffffffffffffffff82111715610cec57610ceb610d53565b5b80604052505050565b7f4e487b7100000000000000000000000000000000000000000000000000000000600052601160045260246000fd5b7f4e487b7100000000000000000000000000000000000000000000000000000000600052602260045260246000fd5b7f4e487b7100000000000000000000000000000000000000000000000000000000600052604160045260246000fd5b6000601f19601f8301169050919050565b7f547279696e6720746f207769746864726177206d6f7265206d6f6e657920746860008201527f616e2074686520636f6e7472616374206861732e000000000000000000000000602082015250565b7f57616974203330207365636f6e64730000000000000000000000000000000000600082015250565b7f4661696c656420746f207769746864726177206d6f6e65792066726f6d20636f60008201527f6e74726163742e00000000000000000000000000000000000000000000000000602082015250565b50565b610e6681610c14565b8114610e7157600080fd5b5056fea26469706673582212202a72573950bc981c7e3a164b2254608fed015622b679e00a10e7b97b143dd74264736f6c63430008040033",
  "linkReferences": {},
  "deployedLinkReferences": {}
}